:0400000007EF00F016
:0A0008006D820BED08F099EF0BF08C
:10100000003738392F3435362A3132332D23303DED
:051010002B2569000022
:101016000600FACF58F0FBCF59F0D9CF5AF0DACF05
:101026005BF0F3CF5CF0F4CF5DF0F2A81DEF08F0B3
:101036001FEF08F028EF08F0F2A224EF08F026EFE1
:1010460008F028EF08F038EC0CF0F0A62DEF08F0C9
:101056002FEF08F038EF08F0F0A034EF08F036EF85
:1010660008F038EF08F036EC0CF0F0A83DEF08F089
:101076003FEF08F048EF08F0F0A244EF08F046EF23
:1010860008F048EF08F034EC0CF0F2A64DEF08F04B
:101096004FEF08F05FEF08F0F2A054EF08F056EFBC
:1010A60008F05FEF08F081A85BEF08F05DEF08F04D
:1010B6005FEF08F032EC0CF0F2A664EF08F066EF92
:1010C60008F076EF08F0F2A06BEF08F06DEF08F08D
:1010D60076EF08F081AA72EF08F074EF08F076EF69
:1010E60008F030EC0CF0F2A67BEF08F07DEF08F08C
:1010F6008DEF08F0F2A082EF08F084EF08F08DEF94
:1011060008F081AC89EF08F08BEF08F08DEF08F05E
:101116002EEC0CF0F2A692EF08F094EF08F0A4EF94
:1011260008F0F2A099EF08F09BEF08F0A4EF08F0A2
:1011360081AEA0EF08F0A2EF08F0A4EF08F02CECC7
:101146000CF09DACA9EF08F0ABEF08F0B4EF08F097
:101156009EACB0EF08F0B2EF08F0B4EF08F03AEC4E
:101166000CF0F2AAB9EF08F0BBEF08F0C4EF08F0F4
:10117600F2A4C0EF08F0C2EF08F0C4EF08F0B4EC38
:101186000BF05DC0F4FF5CC0F3FF5BC0DAFF5AC032
:10119600D9FF59C0FBFF58C0FAFF6D921100010E2E
:1011A600666E5E505F10D8B4DBEF08F0DDEF08F036
:1011B600FDEF08F05EC0D9FF5FC0DAFFDF50070B16
:1011C600606E050E6060EAEF08F0ECEF08F0FDEFE8
:1011D60008F05EC0D9FF5FC0DAFFDF30E832E832E0
:1011E600070B606E070E6064FBEF08F0FDEF08F07A
:1011F60060EF09F0000E666E81EF09F05EC0D9FF60
:101206005FC0DAFFDF30E832E832070B606E010EAE
:10121600616E602A11EF09F0D8906136602E0FEFEB
:1012260009F06150FF0A626E5EC0D9FF5FC0DAFF47
:10123600DF50070B636E6350020D150EF324D96E53
:10124600000EF420DA6EDECF64F0DDCF65F064C008
:10125600D9FF65C0DAFF6250DF1681EF09F05EC084
:10126600D9FF5FC0DAFFDF30E832E832070B606E85
:10127600010E616E602A42EF09F0D8906136602E49
:1012860040EF09F05EC0D9FF5FC0DAFFDF50070B01
:10129600626E6250020D150EF324D96E000EF42014
:1012A600DA6EDECF63F0DDCF64F063C0D9FF64C0D1
:1012B600DAFF6150DF1281EF09F05EC0D9FF5FC02F
:1012C600DAFFDFBC69EF09F06CEF09F0010E6DEF94
:1012D60009F0000E606E616A6150000AD8B476EFBC
:1012E60009F0FDEF08F06050000AD8B401EF09F0EC
:1012F600010AD8B432EF09F0FDEF08F0665012008B
:10130600010E676E5E505F10D8B48CEF09F08EEF59
:1013160009F0AEEF09F05EC0D9FF5FC0DAFFDF501B
:10132600070B616E050E61609BEF09F09DEF09F0FA
:10133600AEEF09F05EC0D9FF5FC0DAFFDF30E832FA
:10134600E832070B616E070E6164ACEF09F0AEEF91
:1013560009F011EF0AF0000E676E26EF0AF05EC084
:10136600D9FF5FC0DAFFDF30E832E832070B616E83
:10137600010E626E612AC2EF09F0D8906236612EC4
:10138600C0EF09F06250FF0A636E5EC0D9FF5FC00E
:10139600DAFFDF50070B646E6450020D0B0EF32468
:1013A600D96E000EF420DA6EDECF65F0DDCF66F082
:1013B60065C0D9FF66C0DAFF6350DF1626EF0AF074
:1013C6005EC0D9FF5FC0DAFFDF30E832E832070BD4
:1013D600616E010E626E612AF3EF09F0D8906236F3
:1013E600612EF1EF09F05EC0D9FF5FC0DAFFDF5072
:1013F600070B636E6350020D0B0EF324D96E000EBD
:10140600F420DA6EDECF64F0DDCF65F064C0D9FF7C
:1014160065C0DAFF6250DF1226EF0AF06050616E97
:10142600626A6250000AD8B41BEF0AF0AEEF09F008
:101436006150000AD8B4B2EF09F0010AD8B4E3EF5C
:1014460009F0AEEF09F0675012004D504E10D8B4B7
:101456002FEF0AF031EF0AF051EF0AF04DC0D9FF35
:101466004EC0DAFFDF50070B4F6E050E4F603EEFA2
:101476000AF040EF0AF051EF0AF04DC0D9FF4EC016
:10148600DAFFDF30E832E832070B4F6E070E4F64A3
:101496004FEF0AF051EF0AF053EF0AF07FEF0AF030
:1014A6004DC0D9FF4EC0DAFFDF30E832E832070B15
:1014B6004F6E010E506E4F2A63EF0AF0D8905036E9
:1014C6004F2E61EF0AF04DC0D9FF4EC0DAFFDF5054
:1014D600070B516E5150020D0B0EF324D96E000E00
:1014E600F420DA6EDECF52F0DDCF53F052C0D9FFD2
:1014F60053C0DAFF5050DF1A1200010E656E6150BC
:101506006210D8A489EF0AF08BEF0AF08FEF0AF089
:10151600000E656ED0EF0AF0D59E61C05EF062C027
:101526005FF07AEC0BF061C05EF062C05FF057ECE2
:101536000BF061C05EF062C05FF00DEC0CF020EEC7
:1015460004F06150D9266250DA22DECF63F0DDCF97
:1015560064F064C063F0646A6350D76E20EE04F0F2
:101566006150D9266250DA22DF50D66E20EE04F0A2
:101576006150D9266250DA22DECF2CF0DDCF2DF075
:10158600F28AF29461C0D9FF62C0DAFFDECF2AF098
:10159600DDCF2BF0F28EF28CD58E65501200010E47
:1015A6006B6E68506910D8A4DBEF0AF0DDEF0AF025
:1015B600E1EF0AF0000E6B6E1CEF0BF044C06CF00E
:1015C60068C0D9FF69C0DAFFDF500F0B6A6E6C5036
:1015D6006A18F80B6A186C6E68C0D9FF69C0DAFF22
:1015E600DF38070B6A6E6A466A466A466C506A18A6
:1015F600C70B6A186C6E6C9C68C0D9FF69C0DAFFAD
:10160600DFAE02D06C8E01D06C9E6C0E5E6E000E4C
:101616005F6ED2EC08F06C0E5E6E000E5F6E68C0F8
:10162600D9FF69C0DAFF000EDFBE010E606E83ECE3
:1016360009F06B50120054505510D8A425EF0BF04A
:1016460027EF0BF029EF0BF056EF0BF041C057F0E8
:1016560054C0D9FF55C0DAFFDF500F0B566E5750F6
:101666005618F80B5618576E54C0D9FF55C0DAFFF6
:10167600DF38070B566E564656465646575056188E
:10168600C70B5618576E579C54C0D9FF55C0DAFF82
:10169600DFAE02D0578E01D0579E570E4D6E000E0C
:1016A6004E6E28EC0AF0120020EE06F05E50D926A7
:1016B6005F50DA22DFA662EF0BF064EF0BF067EF04
:1016C6000BF0D59A79EF0BF0D58A20EE06F05E5036
:1016D600D9265F50DA22DFA473EF0BF075EF0BF01B
:1016E60078EF0BF0D59879EF0BF0D588120020EE45
:1016F60006F05E50D9265F50DA22DFA285EF0BF0A6
:1017060087EF0BF097EF0BF0D59620EE03F05E50C7
:10171600D9265F50DA22DF50606ED5506018F80B7C
:101726006018D56E98EF0BF0D5861200CA0EF66ECD
:10173600170EF76E000EF86E00EE01F010EE29F0AF
:101746000900F5CFEEFFE550E150FAE100EE2AF090
:10175600230EEE6AE806FDE16D906D9200011FEF23
:101766000CF0F2942D50D76E2CC0D6FF2A502B10B9
:10177600D8B4C0EF0BF0C2EF0BF0CEEF0BF002D8EF
:10178600CEEF0BF00500FA6E2A50FD6E2B50FE6E62
:10179600FF6AFA5012001200290E686E000E696E7A
:1017A600D2EC0AF01F6E280E686E000E696ED2EC3F
:1017B6000AF01F6E270E686E000E696ED2EC0AF0F4
:1017C6001F6E1200800F810F820F830F840F890F07
:1017D6008A0F8B0F8C0F8D0F920F930F940F950F0F
:0D17E600960F01F4170002DC0B0A2212021C
:1017F400290E546E000E556E1EEC0BF0280E546E1E
:10180400000E556E1EEC0BF0270E546E000E556E36
:101814001EEC0BF0120020EE06F05E50D9265F504D
:10182400DA22DFA018EF0CF01AEF0CF01DEF0CF029
:10183400D58C1EEF0CF0D59C1200CFEC0BF0200ED3
:10184400616E000E626E80EC0AF01F6E28EF0CF0E1
:1018540007EF00F0F2901200F2901200F2901200E2
:10186400F2901200F0921200F0901200F292120024
:041874009E9C120024
:020000040020DA
:08000000FFFFFFFFFFFFFFFF00
:020000040030CA
:0E000000FF071F1FFF8185FF0FC00FE00F409D
:00000001FF
